{
  "_format": "hh-sol-artifact-1",
  "contractName": "MyEpicGame",
  "sourceName": "contracts/MyEpicGame.sol",
  "abi": [
    {
      "inputs": [
        {
          "internalType": "string[]",
          "name": "characterNames",
          "type": "string[]"
        },
        {
          "internalType": "string[]",
          "name": "characterImageURIs",
          "type": "string[]"
        },
        {
          "internalType": "uint256[]",
          "name": "characterHp",
          "type": "uint256[]"
        },
        {
          "internalType": "uint256[]",
          "name": "characterAttackDmg",
          "type": "uint256[]"
        },
        {
          "internalType": "string",
          "name": "bossName",
          "type": "string"
        },
        {
          "internalType": "string",
          "name": "bossImageURI",
          "type": "string"
        },
        {
          "internalType": "uint256",
          "name": "bossHp",
          "type": "uint256"
        },
        {
          "internalType": "uint256",
          "name": "bossAttackDamage",
          "type": "uint256"
        }
      ],
      "stateMutability": "nonpayable",
      "type": "constructor"
    },
    {
      "anonymous": false,
      "inputs": [
        {
          "indexed": true,
          "internalType": "address",
          "name": "owner",
          "type": "address"
        },
        {
          "indexed": true,
          "internalType": "address",
          "name": "approved",
          "type": "address"
        },
        {
          "indexed": true,
          "internalType": "uint256",
          "name": "tokenId",
          "type": "uint256"
        }
      ],
      "name": "Approval",
      "type": "event"
    },
    {
      "anonymous": false,
      "inputs": [
        {
          "indexed": true,
          "internalType": "address",
          "name": "owner",
          "type": "address"
        },
        {
          "indexed": true,
          "internalType": "address",
          "name": "operator",
          "type": "address"
        },
        {
          "indexed": false,
          "internalType": "bool",
          "name": "approved",
          "type": "bool"
        }
      ],
      "name": "ApprovalForAll",
      "type": "event"
    },
    {
      "anonymous": false,
      "inputs": [
        {
          "indexed": false,
          "internalType": "uint256",
          "name": "newBossHp",
          "type": "uint256"
        },
        {
          "indexed": false,
          "internalType": "uint256",
          "name": "newPlayerHp",
          "type": "uint256"
        }
      ],
      "name": "AttackComplete",
      "type": "event"
    },
    {
      "anonymous": false,
      "inputs": [
        {
          "indexed": false,
          "internalType": "address",
          "name": "sender",
          "type": "address"
        },
        {
          "indexed": false,
          "internalType": "uint256",
          "name": "tokenId",
          "type": "uint256"
        },
        {
          "indexed": false,
          "internalType": "uint256",
          "name": "characterIndex",
          "type": "uint256"
        }
      ],
      "name": "CharacterNFTMinted",
      "type": "event"
    },
    {
      "anonymous": false,
      "inputs": [
        {
          "indexed": true,
          "internalType": "address",
          "name": "from",
          "type": "address"
        },
        {
          "indexed": true,
          "internalType": "address",
          "name": "to",
          "type": "address"
        },
        {
          "indexed": true,
          "internalType": "uint256",
          "name": "tokenId",
          "type": "uint256"
        }
      ],
      "name": "Transfer",
      "type": "event"
    },
    {
      "inputs": [
        {
          "internalType": "address",
          "name": "to",
          "type": "address"
        },
        {
          "internalType": "uint256",
          "name": "tokenId",
          "type": "uint256"
        }
      ],
      "name": "approve",
      "outputs": [],
      "stateMutability": "nonpayable",
      "type": "function"
    },
    {
      "inputs": [],
      "name": "attackBoss",
      "outputs": [],
      "stateMutability": "nonpayable",
      "type": "function"
    },
    {
      "inputs": [
        {
          "internalType": "address",
          "name": "owner",
          "type": "address"
        }
      ],
      "name": "balanceOf",
      "outputs": [
        {
          "internalType": "uint256",
          "name": "",
          "type": "uint256"
        }
      ],
      "stateMutability": "view",
      "type": "function"
    },
    {
      "inputs": [],
      "name": "bigBoss",
      "outputs": [
        {
          "internalType": "string",
          "name": "name",
          "type": "string"
        },
        {
          "internalType": "string",
          "name": "imageURI",
          "type": "string"
        },
        {
          "internalType": "uint256",
          "name": "hp",
          "type": "uint256"
        },
        {
          "internalType": "uint256",
          "name": "maxHp",
          "type": "uint256"
        },
        {
          "internalType": "uint256",
          "name": "attackDamage",
          "type": "uint256"
        }
      ],
      "stateMutability": "view",
      "type": "function"
    },
    {
      "inputs": [],
      "name": "checkIfUserHasNFT",
      "outputs": [
        {
          "components": [
            {
              "internalType": "uint256",
              "name": "characterIndex",
              "type": "uint256"
            },
            {
              "internalType": "string",
              "name": "name",
              "type": "string"
            },
            {
              "internalType": "string",
              "name": "imageURI",
              "type": "string"
            },
            {
              "internalType": "uint256",
              "name": "hp",
              "type": "uint256"
            },
            {
              "internalType": "uint256",
              "name": "maxHp",
              "type": "uint256"
            },
            {
              "internalType": "uint256",
              "name": "attackDamage",
              "type": "uint256"
            }
          ],
          "internalType": "struct MyEpicGame.CharacterAttributes",
          "name": "",
          "type": "tuple"
        }
      ],
      "stateMutability": "view",
      "type": "function"
    },
    {
      "inputs": [],
      "name": "getAllDefaultCharacters",
      "outputs": [
        {
          "components": [
            {
              "internalType": "uint256",
              "name": "characterIndex",
              "type": "uint256"
            },
            {
              "internalType": "string",
              "name": "name",
              "type": "string"
            },
            {
              "internalType": "string",
              "name": "imageURI",
              "type": "string"
            },
            {
              "internalType": "uint256",
              "name": "hp",
              "type": "uint256"
            },
            {
              "internalType": "uint256",
              "name": "maxHp",
              "type": "uint256"
            },
            {
              "internalType": "uint256",
              "name": "attackDamage",
              "type": "uint256"
            }
          ],
          "internalType": "struct MyEpicGame.CharacterAttributes[]",
          "name": "",
          "type": "tuple[]"
        }
      ],
      "stateMutability": "view",
      "type": "function"
    },
    {
      "inputs": [],
      "name": "getAllPlayers",
      "outputs": [
        {
          "components": [
            {
              "internalType": "uint256",
              "name": "characterIndex",
              "type": "uint256"
            },
            {
              "internalType": "string",
              "name": "name",
              "type": "string"
            },
            {
              "internalType": "string",
              "name": "imageURI",
              "type": "string"
            },
            {
              "internalType": "uint256",
              "name": "hp",
              "type": "uint256"
            },
            {
              "internalType": "uint256",
              "name": "maxHp",
              "type": "uint256"
            },
            {
              "internalType": "uint256",
              "name": "attackDamage",
              "type": "uint256"
            }
          ],
          "internalType": "struct MyEpicGame.CharacterAttributes[]",
          "name": "",
          "type": "tuple[]"
        }
      ],
      "stateMutability": "view",
      "type": "function"
    },
    {
      "inputs": [
        {
          "internalType": "uint256",
          "name": "tokenId",
          "type": "uint256"
        }
      ],
      "name": "getApproved",
      "outputs": [
        {
          "internalType": "address",
          "name": "",
          "type": "address"
        }
      ],
      "stateMutability": "view",
      "type": "function"
    },
    {
      "inputs": [],
      "name": "getBigBoss",
      "outputs": [
        {
          "components": [
            {
              "internalType": "string",
              "name": "name",
              "type": "string"
            },
            {
              "internalType": "string",
              "name": "imageURI",
              "type": "string"
            },
            {
              "internalType": "uint256",
              "name": "hp",
              "type": "uint256"
            },
            {
              "internalType": "uint256",
              "name": "maxHp",
              "type": "uint256"
            },
            {
              "internalType": "uint256",
              "name": "attackDamage",
              "type": "uint256"
            }
          ],
          "internalType": "struct MyEpicGame.BigBoss",
          "name": "",
          "type": "tuple"
        }
      ],
      "stateMutability": "view",
      "type": "function"
    },
    {
      "inputs": [
        {
          "internalType": "address",
          "name": "owner",
          "type": "address"
        },
        {
          "internalType": "address",
          "name": "operator",
          "type": "address"
        }
      ],
      "name": "isApprovedForAll",
      "outputs": [
        {
          "internalType": "bool",
          "name": "",
          "type": "bool"
        }
      ],
      "stateMutability": "view",
      "type": "function"
    },
    {
      "inputs": [
        {
          "internalType": "uint256",
          "name": "_characterIndex",
          "type": "uint256"
        }
      ],
      "name": "mintCharacterNFT",
      "outputs": [],
      "stateMutability": "nonpayable",
      "type": "function"
    },
    {
      "inputs": [],
      "name": "name",
      "outputs": [
        {
          "internalType": "string",
          "name": "",
          "type": "string"
        }
      ],
      "stateMutability": "view",
      "type": "function"
    },
    {
      "inputs": [
        {
          "internalType": "uint256",
          "name": "",
          "type": "uint256"
        }
      ],
      "name": "nftHolderAttributes",
      "outputs": [
        {
          "internalType": "uint256",
          "name": "characterIndex",
          "type": "uint256"
        },
        {
          "internalType": "string",
          "name": "name",
          "type": "string"
        },
        {
          "internalType": "string",
          "name": "imageURI",
          "type": "string"
        },
        {
          "internalType": "uint256",
          "name": "hp",
          "type": "uint256"
        },
        {
          "internalType": "uint256",
          "name": "maxHp",
          "type": "uint256"
        },
        {
          "internalType": "uint256",
          "name": "attackDamage",
          "type": "uint256"
        }
      ],
      "stateMutability": "view",
      "type": "function"
    },
    {
      "inputs": [
        {
          "internalType": "address",
          "name": "",
          "type": "address"
        }
      ],
      "name": "nftHolders",
      "outputs": [
        {
          "internalType": "uint256",
          "name": "",
          "type": "uint256"
        }
      ],
      "stateMutability": "view",
      "type": "function"
    },
    {
      "inputs": [
        {
          "internalType": "uint256",
          "name": "tokenId",
          "type": "uint256"
        }
      ],
      "name": "ownerOf",
      "outputs": [
        {
          "internalType": "address",
          "name": "",
          "type": "address"
        }
      ],
      "stateMutability": "view",
      "type": "function"
    },
    {
      "inputs": [
        {
          "internalType": "address",
          "name": "from",
          "type": "address"
        },
        {
          "internalType": "address",
          "name": "to",
          "type": "address"
        },
        {
          "internalType": "uint256",
          "name": "tokenId",
          "type": "uint256"
        }
      ],
      "name": "safeTransferFrom",
      "outputs": [],
      "stateMutability": "nonpayable",
      "type": "function"
    },
    {
      "inputs": [
        {
          "internalType": "address",
          "name": "from",
          "type": "address"
        },
        {
          "internalType": "address",
          "name": "to",
          "type": "address"
        },
        {
          "internalType": "uint256",
          "name": "tokenId",
          "type": "uint256"
        },
        {
          "internalType": "bytes",
          "name": "data",
          "type": "bytes"
        }
      ],
      "name": "safeTransferFrom",
      "outputs": [],
      "stateMutability": "nonpayable",
      "type": "function"
    },
    {
      "inputs": [
        {
          "internalType": "address",
          "name": "operator",
          "type": "address"
        },
        {
          "internalType": "bool",
          "name": "approved",
          "type": "bool"
        }
      ],
      "name": "setApprovalForAll",
      "outputs": [],
      "stateMutability": "nonpayable",
      "type": "function"
    },
    {
      "inputs": [
        {
          "internalType": "bytes4",
          "name": "interfaceId",
          "type": "bytes4"
        }
      ],
      "name": "supportsInterface",
      "outputs": [
        {
          "internalType": "bool",
          "name": "",
          "type": "bool"
        }
      ],
      "stateMutability": "view",
      "type": "function"
    },
    {
      "inputs": [],
      "name": "symbol",
      "outputs": [
        {
          "internalType": "string",
          "name": "",
          "type": "string"
        }
      ],
      "stateMutability": "view",
      "type": "function"
    },
    {
      "inputs": [
        {
          "internalType": "uint256",
          "name": "_tokenId",
          "type": "uint256"
        }
      ],
      "name": "tokenURI",
      "outputs": [
        {
          "internalType": "string",
          "name": "",
          "type": "string"
        }
      ],
      "stateMutability": "view",
      "type": "function"
    },
    {
      "inputs": [
        {
          "internalType": "address",
          "name": "from",
          "type": "address"
        },
        {
          "internalType": "address",
          "name": "to",
          "type": "address"
        },
        {
          "internalType": "uint256",
          "name": "tokenId",
          "type": "uint256"
        }
      ],
      "name": "transferFrom",
      "outputs": [],
      "stateMutability": "nonpayable",
      "type": "function"
    }
  ],
  "bytecode": "0x60806040523480156200001157600080fd5b5060405162005c2138038062005c21833981810160405281019062000037919062000a8b565b6040518060400160405280600881526020017f4f6e6550696563650000000000000000000000000000000000000000000000008152506040518060400160405280600881526020017f4f4e4550494543450000000000000000000000000000000000000000000000008152508160009081620000b4919062000e4f565b508060019081620000c6919062000e4f565b50505060005b8851811015620003ff5760066040518060c001604052808381526020018b8481518110620000ff57620000fe62000f36565b5b602002602001015181526020018a848151811062000122576200012162000f36565b5b6020026020010151815260200189848151811062000145576200014462000f36565b5b6020026020010151815260200189848151811062000168576200016762000f36565b5b602002602001015181526020018884815181106200018b576200018a62000f36565b5b60200260200101518152509080600181540180825580915050600190039060005260206000209060060201600090919091909150600082015181600001556020820151816001019081620001e0919062000e4f565b506040820151816002019081620001f8919062000e4f565b50606082015181600301556080820151816004015560a08201518160050155505060006006828154811062000232576200023162000f36565b5b90600052602060002090600602016040518060c001604052908160008201548152602001600182018054620002679062000c48565b80601f0160208091040260200160405190810160405280929190818152602001828054620002959062000c48565b8015620002e65780601f10620002ba57610100808354040283529160200191620002e6565b820191906000526020600020905b815481529060010190602001808311620002c857829003601f168201915b50505050508152602001600282018054620003019062000c48565b80601f01602080910402602001604051908101604052809291908181526020018280546200032f9062000c48565b8015620003805780601f10620003545761010080835404028352916020019162000380565b820191906000526020600020905b8154815290600101906020018083116200036257829003601f168201915b5050505050815260200160038201548152602001600482015481526020016005820154815250509050620003e760405180606001604052806025815260200162005bd2602591398260200151836060015184604001516200060060201b62001d761760201c565b50600181620003f7919062000f94565b9050620000cc565b506040518060a00160405280858152602001848152602001838152602001838152602001828152506007600082015181600001908162000440919062000e4f565b50602082015181600101908162000458919062000e4f565b50604082015181600201556060820151816003015560808201518160040155905050620005db6040518060600160405280602a815260200162005bf7602a913960076000018054620004aa9062000c48565b80601f0160208091040260200160405190810160405280929190818152602001828054620004d89062000c48565b8015620005295780601f10620004fd5761010080835404028352916020019162000529565b820191906000526020600020905b8154815290600101906020018083116200050b57829003601f168201915b505050505060076002015460076001018054620005469062000c48565b80601f0160208091040260200160405190810160405280929190818152602001828054620005749062000c48565b8015620005c55780601f106200059957610100808354040283529160200191620005c5565b820191906000526020600020905b815481529060010190602001808311620005a757829003601f168201915b50505050506200060060201b62001d761760201c565b620005f2600c620006ac60201b62001e181760201c565b505050505050505062001094565b620006a6848484846040516024016200061d949392919062001032565b6040516020818303038152906040527f5d1a971a000000000000000000000000000000000000000000000000000000007bffffffffffffffffffffffffffffffffffffffffffffffffffffffff19166020820180517bffffffffffffffffffffffffffffffffffffffffffffffffffffffff8381831617835250505050620006c260201b60201c565b50505050565b6001816000016000828254019250508190555050565b60008151905060006a636f6e736f6c652e6c6f679050602083016000808483855afa5050505050565b6000604051905090565b600080fd5b600080fd5b600080fd5b6000601f19601f8301169050919050565b7f4e487b7100000000000000000000000000000000000000000000000000000000600052604160045260246000fd5b6200074f8262000704565b810181811067ffffffffffffffff8211171562000771576200077062000715565b5b80604052505050565b600062000786620006eb565b905062000794828262000744565b919050565b600067ffffffffffffffff821115620007b757620007b662000715565b5b602082029050602081019050919050565b600080fd5b600080fd5b600067ffffffffffffffff821115620007f057620007ef62000715565b5b620007fb8262000704565b9050602081019050919050565b60005b83811015620008285780820151818401526020810190506200080b565b60008484015250505050565b60006200084b6200084584620007d2565b6200077a565b9050828152602081018484840111156200086a5762000869620007cd565b5b6200087784828562000808565b509392505050565b600082601f830112620008975762000896620006ff565b5b8151620008a984826020860162000834565b91505092915050565b6000620008c9620008c38462000799565b6200077a565b90508083825260208201905060208402830185811115620008ef57620008ee620007c8565b5b835b818110156200093d57805167ffffffffffffffff811115620009185762000917620006ff565b5b8086016200092789826200087f565b85526020850194505050602081019050620008f1565b5050509392505050565b600082601f8301126200095f576200095e620006ff565b5b815162000971848260208601620008b2565b91505092915050565b600067ffffffffffffffff82111562000998576200099762000715565b5b602082029050602081019050919050565b6000819050919050565b620009be81620009a9565b8114620009ca57600080fd5b50565b600081519050620009de81620009b3565b92915050565b6000620009fb620009f5846200097a565b6200077a565b9050808382526020820190506020840283018581111562000a215762000a20620007c8565b5b835b8181101562000a4e578062000a398882620009cd565b84526020840193505060208101905062000a23565b5050509392505050565b600082601f83011262000a705762000a6f620006ff565b5b815162000a82848260208601620009e4565b91505092915050565b600080600080600080600080610100898b03121562000aaf5762000aae620006f5565b5b600089015167ffffffffffffffff81111562000ad05762000acf620006fa565b5b62000ade8b828c0162000947565b985050602089015167ffffffffffffffff81111562000b025762000b01620006fa565b5b62000b108b828c0162000947565b975050604089015167ffffffffffffffff81111562000b345762000b33620006fa565b5b62000b428b828c0162000a58565b965050606089015167ffffffffffffffff81111562000b665762000b65620006fa565b5b62000b748b828c0162000a58565b955050608089015167ffffffffffffffff81111562000b985762000b97620006fa565b5b62000ba68b828c016200087f565b94505060a089015167ffffffffffffffff81111562000bca5762000bc9620006fa565b5b62000bd88b828c016200087f565b93505060c062000beb8b828c01620009cd565b92505060e062000bfe8b828c01620009cd565b9150509295985092959890939650565b600081519050919050565b7f4e487b7100000000000000000000000000000000000000000000000000000000600052602260045260246000fd5b6000600282049050600182168062000c6157607f821691505b60208210810362000c775762000c7662000c19565b5b50919050565b60008190508160005260206000209050919050565b60006020601f8301049050919050565b600082821b905092915050565b60006008830262000ce17fffffffffffffffffffffffffffffffffffffffffffffffffffffffffffffffff8262000ca2565b62000ced868362000ca2565b95508019841693508086168417925050509392505050565b6000819050919050565b600062000d3062000d2a62000d2484620009a9565b62000d05565b620009a9565b9050919050565b6000819050919050565b62000d4c8362000d0f565b62000d6462000d5b8262000d37565b84845462000caf565b825550505050565b600090565b62000d7b62000d6c565b62000d8881848462000d41565b505050565b5b8181101562000db05762000da460008262000d71565b60018101905062000d8e565b5050565b601f82111562000dff5762000dc98162000c7d565b62000dd48462000c92565b8101602085101562000de4578190505b62000dfc62000df38562000c92565b83018262000d8d565b50505b505050565b600082821c905092915050565b600062000e246000198460080262000e04565b1980831691505092915050565b600062000e3f838362000e11565b9150826002028217905092915050565b62000e5a8262000c0e565b67ffffffffffffffff81111562000e765762000e7562000715565b5b62000e82825462000c48565b62000e8f82828562000db4565b600060209050601f83116001811462000ec7576000841562000eb2578287015190505b62000ebe858262000e31565b86555062000f2e565b601f19841662000ed78662000c7d565b60005b8281101562000f015784890151825560018201915060208501945060208101905062000eda565b8683101562000f21578489015162000f1d601f89168262000e11565b8355505b6001600288020188555050505b505050505050565b7f4e487b7100000000000000000000000000000000000000000000000000000000600052603260045260246000fd5b7f4e487b7100000000000000000000000000000000000000000000000000000000600052601160045260246000fd5b600062000fa182620009a9565b915062000fae83620009a9565b925082820190508082111562000fc95762000fc862000f65565b5b92915050565b600082825260208201905092915050565b600062000fed8262000c0e565b62000ff9818562000fcf565b93506200100b81856020860162000808565b620010168162000704565b840191505092915050565b6200102c81620009a9565b82525050565b600060808201905081810360008301526200104e818762000fe0565b9050818103602083015262001064818662000fe0565b905062001075604083018562001021565b818103606083015262001089818462000fe0565b905095945050505050565b614b2e80620010a46000396000f3fe608060405234801561001057600080fd5b50600436106101425760003560e01c806398da4c95116100b8578063c87b56dd1161007c578063c87b56dd14610392578063c8cf27f4146103c2578063d4f24c5b146103e0578063e985e9c5146103ea578063efa1c4821461041a578063f8b81ef71461043857610142565b806398da4c95146102e5578063a22cb4651461031a578063a9c3267914610336578063b88d4fde14610358578063b953084e1461037457610142565b806323b872dd1161010a57806323b872dd146101ff57806342842e0e1461021b5780636352211e1461023757806370a08231146102675780637df124a11461029757806395d89b41146102c757610142565b806301ffc9a7146101475780630665f9611461017757806306fdde0314610195578063081812fc146101b3578063095ea7b3146101e3575b600080fd5b610161600480360381019061015c9190612eb5565b610454565b60405161016e9190612efd565b60405180910390f35b61017f610536565b60405161018c919061303e565b60405180910390f35b61019d610692565b6040516101aa91906130aa565b60405180910390f35b6101cd60048036038101906101c891906130f8565b610724565b6040516101da9190613166565b60405180910390f35b6101fd60048036038101906101f891906131ad565b61076a565b005b610219600480360381019061021491906131ed565b610881565b005b610235600480360381019061023091906131ed565b6108e1565b005b610251600480360381019061024c91906130f8565b610901565b60405161025e9190613166565b60405180910390f35b610281600480360381019061027c9190613240565b6109b2565b60405161028e919061327c565b60405180910390f35b6102b160048036038101906102ac9190613240565b610a69565b6040516102be919061327c565b60405180910390f35b6102cf610a81565b6040516102dc91906130aa565b60405180910390f35b6102ff60048036038101906102fa91906130f8565b610b13565b60405161031196959493929190613297565b60405180910390f35b610334600480360381019061032f9190613332565b610c5f565b005b61033e610c75565b60405161034f959493929190613372565b60405180910390f35b610372600480360381019061036d9190613508565b610da9565b005b61037c610e0b565b60405161038991906136dd565b60405180910390f35b6103ac60048036038101906103a791906130f8565b610fb6565b6040516103b991906130aa565b60405180910390f35b6103ca6111d1565b6040516103d7919061378f565b60405180910390f35b6103e86113a9565b005b61040460048036038101906103ff91906137b1565b611734565b6040516104119190612efd565b60405180910390f35b6104226117c8565b60405161042f91906136dd565b60405180910390f35b610452600480360381019061044d91906130f8565b611a4e565b005b60007f80ac58cd000000000000000000000000000000000000000000000000000000007bffffffffffffffffffffffffffffffffffffffffffffffffffffffff1916827bffffffffffffffffffffffffffffffffffffffffffffffffffffffff1916148061051f57507f5b5e139f000000000000000000000000000000000000000000000000000000007bffffffffffffffffffffffffffffffffffffffffffffffffffffffff1916827bffffffffffffffffffffffffffffffffffffffffffffffffffffffff1916145b8061052f575061052e82611e2e565b5b9050919050565b61053e612de4565b60076040518060a001604052908160008201805461055b90613820565b80601f016020809104026020016040519081016040528092919081815260200182805461058790613820565b80156105d45780601f106105a9576101008083540402835291602001916105d4565b820191906000526020600020905b8154815290600101906020018083116105b757829003601f168201915b505050505081526020016001820180546105ed90613820565b80601f016020809104026020016040519081016040528092919081815260200182805461061990613820565b80156106665780601f1061063b57610100808354040283529160200191610666565b820191906000526020600020905b81548152906001019060200180831161064957829003601f168201915b505050505081526020016002820154815260200160038201548152602001600482015481525050905090565b6060600080546106a190613820565b80601f01602080910402602001604051908101604052809291908181526020018280546106cd90613820565b801561071a5780601f106106ef5761010080835404028352916020019161071a565b820191906000526020600020905b8154815290600101906020018083116106fd57829003601f168201915b5050505050905090565b600061072f82611e98565b6004600083815260200190815260200160002060009054906101000a900473ffffffffffffffffffffffffffffffffffffffff169050919050565b600061077582610901565b90508073ffffffffffffffffffffffffffffffffffffffff168373ffffffffffffffffffffffffffffffffffffffff16036107e5576040517f08c379a00000000000000000000000000000000000000000000000000000000081526004016107dc906138c3565b60405180910390fd5b8073ffffffffffffffffffffffffffffffffffffffff16610804611ee3565b73ffffffffffffffffffffffffffffffffffffffff16148061083357506108328161082d611ee3565b611734565b5b610872576040517f08c379a000000000000000000000000000000000000000000000000000000000815260040161086990613955565b60405180910390fd5b61087c8383611eeb565b505050565b61089261088c611ee3565b82611fa4565b6108d1576040517f08c379a00000000000000000000000000000000000000000000000000000000081526004016108c8906139e7565b60405180910390fd5b6108dc838383612039565b505050565b6108fc83838360405180602001604052806000815250610da9565b505050565b6000806002600084815260200190815260200160002060009054906101000a900473ffffffffffffffffffffffffffffffffffffffff169050600073ffffffffffffffffffffffffffffffffffffffff168173ffffffffffffffffffffffffffffffffffffffff16036109a9576040517f08c379a00000000000000000000000000000000000000000000000000000000081526004016109a090613a53565b60405180910390fd5b80915050919050565b60008073ffffffffffffffffffffffffffffffffffffffff168273ffffffffffffffffffffffffffffffffffffffff1603610a22576040517f08c379a0000000000000000000000000000000000000000000000000000000008152600401610a1990613ae5565b60405180910390fd5b600360008373ffffffffffffffffffffffffffffffffffffffff1673ffffffffffffffffffffffffffffffffffffffff168152602001908152602001600020549050919050565b600e6020528060005260406000206000915090505481565b606060018054610a9090613820565b80601f0160208091040260200160405190810160405280929190818152602001828054610abc90613820565b8015610b095780601f10610ade57610100808354040283529160200191610b09565b820191906000526020600020905b815481529060010190602001808311610aec57829003601f168201915b5050505050905090565b600d602052806000526040600020600091509050806000015490806001018054610b3c90613820565b80601f0160208091040260200160405190810160405280929190818152602001828054610b6890613820565b8015610bb55780601f10610b8a57610100808354040283529160200191610bb5565b820191906000526020600020905b815481529060010190602001808311610b9857829003601f168201915b505050505090806002018054610bca90613820565b80601f0160208091040260200160405190810160405280929190818152602001828054610bf690613820565b8015610c435780601f10610c1857610100808354040283529160200191610c43565b820191906000526020600020905b815481529060010190602001808311610c2657829003601f168201915b5050505050908060030154908060040154908060050154905086565b610c71610c6a611ee3565b838361229f565b5050565b6007806000018054610c8690613820565b80601f0160208091040260200160405190810160405280929190818152602001828054610cb290613820565b8015610cff5780601f10610cd457610100808354040283529160200191610cff565b820191906000526020600020905b815481529060010190602001808311610ce257829003601f168201915b505050505090806001018054610d1490613820565b80601f0160208091040260200160405190810160405280929190818152602001828054610d4090613820565b8015610d8d5780601f10610d6257610100808354040283529160200191610d8d565b820191906000526020600020905b815481529060010190602001808311610d7057829003601f168201915b5050505050908060020154908060030154908060040154905085565b610dba610db4611ee3565b83611fa4565b610df9576040517f08c379a0000000000000000000000000000000000000000000000000000000008152600401610df0906139e7565b60405180910390fd5b610e058484848461240b565b50505050565b60606006805480602002602001604051908101604052809291908181526020016000905b82821015610fad57838290600052602060002090600602016040518060c001604052908160008201548152602001600182018054610e6c90613820565b80601f0160208091040260200160405190810160405280929190818152602001828054610e9890613820565b8015610ee55780601f10610eba57610100808354040283529160200191610ee5565b820191906000526020600020905b815481529060010190602001808311610ec857829003601f168201915b50505050508152602001600282018054610efe90613820565b80601f0160208091040260200160405190810160405280929190818152602001828054610f2a90613820565b8015610f775780601f10610f4c57610100808354040283529160200191610f77565b820191906000526020600020905b815481529060010190602001808311610f5a57829003601f168201915b50505050508152602001600382015481526020016004820154815260200160058201548152505081526020019060010190610e2f565b50505050905090565b60606000600d60008481526020019081526020016000206040518060c001604052908160008201548152602001600182018054610ff290613820565b80601f016020809104026020016040519081016040528092919081815260200182805461101e90613820565b801561106b5780601f106110405761010080835404028352916020019161106b565b820191906000526020600020905b81548152906001019060200180831161104e57829003601f168201915b5050505050815260200160028201805461108490613820565b80601f01602080910402602001604051908101604052809291908181526020018280546110b090613820565b80156110fd5780601f106110d2576101008083540402835291602001916110fd565b820191906000526020600020905b8154815290600101906020018083116110e057829003601f168201915b505050505081526020016003820154815260200160048201548152602001600582015481525050905060006111358260600151612467565b905060006111468360800151612467565b905060006111578460a00151612467565b9050600061119d856020015161116c89612467565b876040015187878760405160200161118996959493929190613e13565b6040516020818303038152906040526125c7565b90506000816040516020016111b29190613f04565b6040516020818303038152906040529050809650505050505050919050565b6111d9612e13565b6000600e60003373ffffffffffffffffffffffffffffffffffffffff1673ffffffffffffffffffffffffffffffffffffffff168152602001908152602001600020549050600081111561139857600d60008281526020019081526020016000206040518060c00160405290816000820154815260200160018201805461125e90613820565b80601f016020809104026020016040519081016040528092919081815260200182805461128a90613820565b80156112d75780601f106112ac576101008083540402835291602001916112d7565b820191906000526020600020905b8154815290600101906020018083116112ba57829003601f168201915b505050505081526020016002820180546112f090613820565b80601f016020809104026020016040519081016040528092919081815260200182805461131c90613820565b80156113695780601f1061133e57610100808354040283529160200191611369565b820191906000526020600020905b81548152906001019060200180831161134c57829003601f168201915b5050505050815260200160038201548152602001600482015481526020016005820154815250509150506113a6565b6113a0612e13565b80925050505b90565b6000600e60003373ffffffffffffffffffffffffffffffffffffffff1673ffffffffffffffffffffffffffffffffffffffff1681526020019081526020016000205490506000600d600083815260200190815260200160002090506114bc6040518060600160405280603c8152602001614abd603c913982600101805461142f90613820565b80601f016020809104026020016040519081016040528092919081815260200182805461145b90613820565b80156114a85780601f1061147d576101008083540402835291602001916114a8565b820191906000526020600020905b81548152906001019060200180831161148b57829003601f168201915b50505050508360030154846005015461275e565b6115946040518060400160405280601b81526020017f426f73732025732068617320257320485020616e6420257320414400000000008152506007600001805461150590613820565b80601f016020809104026020016040519081016040528092919081815260200182805461153190613820565b801561157e5780601f106115535761010080835404028352916020019161157e565b820191906000526020600020905b81548152906001019060200180831161156157829003601f168201915b505050505060076002015460076004015461275e565b60008160030154116115db576040517f08c379a00000000000000000000000000000000000000000000000000000000081526004016115d290613f98565b60405180910390fd5b600060076002015411611623576040517f08c379a000000000000000000000000000000000000000000000000000000000815260040161161a9061402a565b60405180910390fd5b80600501546007600201541015611644576000600760020181905550611663565b80600501546007600201546116599190614079565b6007600201819055505b6007600401548160030154101561168357600081600301819055506116a1565b60076004015481600301546116989190614079565b81600301819055505b6116c8604051806060016040528060258152602001614a0260259139600760020154612800565b6116ee604051806060016040528060288152602001614a67602891398260030154612800565b7f838ab28464562786a6c4ab2311964b82fa60bd9b14aa7e856af1f3f18d41a41460076002015482600301546040516117289291906140ad565b60405180910390a15050565b6000600560008473ffffffffffffffffffffffffffffffffffffffff1673ffffffffffffffffffffffffffffffffffffffff16815260200190815260200160002060008373ffffffffffffffffffffffffffffffffffffffff1673ffffffffffffffffffffffffffffffffffffffff16815260200190815260200160002060009054906101000a900460ff16905092915050565b606060006117d6600c61289c565b905060006001826117e79190614079565b67ffffffffffffffff811115611800576117ff6133dd565b5b60405190808252806020026020018201604052801561183957816020015b611826612e13565b81526020019060019003908161181e5790505b50905060005b60018361184c9190614079565b811015611a45576000600d600060018461186691906140d6565b81526020019081526020016000206040518060c00160405290816000820154815260200160018201805461189990613820565b80601f01602080910402602001604051908101604052809291908181526020018280546118c590613820565b80156119125780601f106118e757610100808354040283529160200191611912565b820191906000526020600020905b8154815290600101906020018083116118f557829003601f168201915b5050505050815260200160028201805461192b90613820565b80601f016020809104026020016040519081016040528092919081815260200182805461195790613820565b80156119a45780601f10611979576101008083540402835291602001916119a4565b820191906000526020600020905b81548152906001019060200180831161198757829003601f168201915b50505050508152602001600382015481526020016004820154815260200160058201548152505090506040518060c0016040528082600001518152602001826020015181526020018260400151815260200182606001518152602001826080015181526020018260a00151815250838381518110611a2557611a2461410a565b5b602002602001018190525050600181611a3e91906140d6565b905061183f565b50809250505090565b6000611a5a600c61289c565b9050611a6633826128aa565b6040518060c0016040528083815260200160068481548110611a8b57611a8a61410a565b5b90600052602060002090600602016001018054611aa790613820565b80601f0160208091040260200160405190810160405280929190818152602001828054611ad390613820565b8015611b205780601f10611af557610100808354040283529160200191611b20565b820191906000526020600020905b815481529060010190602001808311611b0357829003601f168201915b5050505050815260200160068481548110611b3e57611b3d61410a565b5b90600052602060002090600602016002018054611b5a90613820565b80601f0160208091040260200160405190810160405280929190818152602001828054611b8690613820565b8015611bd35780601f10611ba857610100808354040283529160200191611bd3565b820191906000526020600020905b815481529060010190602001808311611bb657829003601f168201915b5050505050815260200160068481548110611bf157611bf061410a565b5b906000526020600020906006020160030154815260200160068481548110611c1c57611c1b61410a565b5b906000526020600020906006020160040154815260200160068481548110611c4757611c4661410a565b5b906000526020600020906006020160050154815250600d6000838152602001908152602001600020600082015181600001556020820151816001019081611c8e91906142e5565b506040820151816002019081611ca491906142e5565b50606082015181600301556080820151816004015560a08201518160050155905050611ce96040518060600160405280602e8152602001614a8f602e913982846128c8565b80600e60003373ffffffffffffffffffffffffffffffffffffffff1673ffffffffffffffffffffffffffffffffffffffff16815260200190815260200160002081905550611d37600c611e18565b7f4bc303fd457a97b4691b9af582ce71868a3d258638c8d4f8c60988a0f0bfb8cd338284604051611d6a939291906143b7565b60405180910390a15050565b611e1284848484604051602401611d9094939291906143ee565b6040516020818303038152906040527f5d1a971a000000000000000000000000000000000000000000000000000000007bffffffffffffffffffffffffffffffffffffffffffffffffffffffff19166020820180517bffffffffffffffffffffffffffffffffffffffffffffffffffffffff8381831617835250505050612967565b50505050565b6001816000016000828254019250508190555050565b60007f01ffc9a7000000000000000000000000000000000000000000000000000000007bffffffffffffffffffffffffffffffffffffffffffffffffffffffff1916827bffffffffffffffffffffffffffffffffffffffffffffffffffffffff1916149050919050565b611ea181612990565b611ee0576040517f08c379a0000000000000000000000000000000000000000000000000000000008152600401611ed790613a53565b60405180910390fd5b50565b600033905090565b816004600083815260200190815260200160002060006101000a81548173ffffffffffffffffffffffffffffffffffffffff021916908373ffffffffffffffffffffffffffffffffffffffff160217905550808273ffffffffffffffffffffffffffffffffffffffff16611f5e83610901565b73ffffffffffffffffffffffffffffffffffffffff167f8c5be1e5ebec7d5bd14f71427d1e84f3dd0314c0f7b2291e5b200ac8c7c3b92560405160405180910390a45050565b600080611fb083610901565b90508073ffffffffffffffffffffffffffffffffffffffff168473ffffffffffffffffffffffffffffffffffffffff161480611ff25750611ff18185611734565b5b8061203057508373ffffffffffffffffffffffffffffffffffffffff1661201884610724565b73ffffffffffffffffffffffffffffffffffffffff16145b91505092915050565b8273ffffffffffffffffffffffffffffffffffffffff1661205982610901565b73ffffffffffffffffffffffffffffffffffffffff16146120af576040517f08c379a00000000000000000000000000000000000000000000000000000000081526004016120a6906144ba565b60405180910390fd5b600073ffffffffffffffffffffffffffffffffffffffff168273ffffffffffffffffffffffffffffffffffffffff160361211e576040517f08c379a00000000000000000000000000000000000000000000000000000000081526004016121159061454c565b60405180910390fd5b6121298383836129fc565b612134600082611eeb565b6001600360008573ffffffffffffffffffffffffffffffffffffffff1673ffffffffffffffffffffffffffffffffffffffff16815260200190815260200160002060008282546121849190614079565b925050819055506001600360008473ffffffffffffffffffffffffffffffffffffffff1673ffffffffffffffffffffffffffffffffffffffff16815260200190815260200160002060008282546121db91906140d6565b92505081905550816002600083815260200190815260200160002060006101000a81548173ffffffffffffffffffffffffffffffffffffffff021916908373ffffffffffffffffffffffffffffffffffffffff160217905550808273ffffffffffffffffffffffffffffffffffffffff168473ffffffffffffffffffffffffffffffffffffffff167fddf252ad1be2c89b69c2b068fc378daa952ba7f163c4a11628f55a4df523b3ef60405160405180910390a461229a838383612a01565b505050565b8173ffffffffffffffffffffffffffffffffffffffff168373ffffffffffffffffffffffffffffffffffffffff160361230d576040517f08c379a0000000000000000000000000000000000000000000000000000000008152600401612304906145b8565b60405180910390fd5b80600560008573ffffffffffffffffffffffffffffffffffffffff1673ffffffffffffffffffffffffffffffffffffffff16815260200190815260200160002060008473ffffffffffffffffffffffffffffffffffffffff1673ffffffffffffffffffffffffffffffffffffffff16815260200190815260200160002060006101000a81548160ff0219169083151502179055508173ffffffffffffffffffffffffffffffffffffffff168373ffffffffffffffffffffffffffffffffffffffff167f17307eab39ab6107e8899845ad3d59bd9653f200f220920489ca2b5937696c31836040516123fe9190612efd565b60405180910390a3505050565b612416848484612039565b61242284848484612a06565b612461576040517f08c379a00000000000000000000000000000000000000000000000000000000081526004016124589061464a565b60405180910390fd5b50505050565b6060600082036124ae576040518060400160405280600181526020017f300000000000000000000000000000000000000000000000000000000000000081525090506125c2565b600082905060005b600082146124e05780806124c99061466a565b915050600a826124d991906146e1565b91506124b6565b60008167ffffffffffffffff8111156124fc576124fb6133dd565b5b6040519080825280601f01601f19166020018201604052801561252e5781602001600182028036833780820191505090505b5090505b600085146125bb576001826125479190614079565b9150600a856125569190614712565b603061256291906140d6565b60f81b8183815181106125785761257761410a565b5b60200101907effffffffffffffffffffffffffffffffffffffffffffffffffffffffffffff1916908160001a905350600a856125b491906146e1565b9450612532565b8093505050505b919050565b6060600082519050600081036125ef5760405180602001604052806000815250915050612759565b6000600360028361260091906140d6565b61260a91906146e1565b60046126169190614743565b9050600060208261262791906140d6565b67ffffffffffffffff8111156126405761263f6133dd565b5b6040519080825280601f01601f1916602001820160405280156126725781602001600182028036833780820191505090505b5090506000604051806060016040528060408152602001614a27604091399050600181016020830160005b868110156127165760038101905062ffffff818a015116603f8160121c168401518060081b905060ff603f83600c1c1686015116810190508060081b905060ff603f8360061c1686015116810190508060081b905060ff603f831686015116810190508060e01b9050808452600484019350505061269d565b50600386066001811461273057600281146127405761274b565b613d3d60f01b600283035261274b565b603d60f81b60018303525b508484525050819450505050505b919050565b6127fa848484846040516024016127789493929190614785565b6040516020818303038152906040527ff45d7d2c000000000000000000000000000000000000000000000000000000007bffffffffffffffffffffffffffffffffffffffffffffffffffffffff19166020820180517bffffffffffffffffffffffffffffffffffffffffffffffffffffffff8381831617835250505050612967565b50505050565b61289882826040516024016128169291906147d8565b6040516020818303038152906040527fb60e72cc000000000000000000000000000000000000000000000000000000007bffffffffffffffffffffffffffffffffffffffffffffffffffffffff19166020820180517bffffffffffffffffffffffffffffffffffffffffffffffffffffffff8381831617835250505050612967565b5050565b600081600001549050919050565b6128c4828260405180602001604052806000815250612b8d565b5050565b6129628383836040516024016128e093929190614808565b6040516020818303038152906040527fca47c4eb000000000000000000000000000000000000000000000000000000007bffffffffffffffffffffffffffffffffffffffffffffffffffffffff19166020820180517bffffffffffffffffffffffffffffffffffffffffffffffffffffffff8381831617835250505050612967565b505050565b60008151905060006a636f6e736f6c652e6c6f679050602083016000808483855afa5050505050565b60008073ffffffffffffffffffffffffffffffffffffffff166002600084815260200190815260200160002060009054906101000a900473ffffffffffffffffffffffffffffffffffffffff1673ffffffffffffffffffffffffffffffffffffffff1614159050919050565b505050565b505050565b6000612a278473ffffffffffffffffffffffffffffffffffffffff16612be8565b15612b80578373ffffffffffffffffffffffffffffffffffffffff1663150b7a02612a50611ee3565b8786866040518563ffffffff1660e01b8152600401612a72949392919061489b565b6020604051808303816000875af1925050508015612aae57506040513d601f19601f82011682018060405250810190612aab91906148fc565b60015b612b30573d8060008114612ade576040519150601f19603f3d011682016040523d82523d6000602084013e612ae3565b606091505b506000815103612b28576040517f08c379a0000000000000000000000000000000000000000000000000000000008152600401612b1f9061464a565b60405180910390fd5b805181602001fd5b63150b7a0260e01b7bffffffffffffffffffffffffffffffffffffffffffffffffffffffff1916817bffffffffffffffffffffffffffffffffffffffffffffffffffffffff191614915050612b85565b600190505b949350505050565b612b978383612c0b565b612ba46000848484612a06565b612be3576040517f08c379a0000000000000000000000000000000000000000000000000000000008152600401612bda9061464a565b60405180910390fd5b505050565b6000808273ffffffffffffffffffffffffffffffffffffffff163b119050919050565b600073ffffffffffffffffffffffffffffffffffffffff168273ffffffffffffffffffffffffffffffffffffffff1603612c7a576040517f08c379a0000000000000000000000000000000000000000000000000000000008152600401612c7190614975565b60405180910390fd5b612c8381612990565b15612cc3576040517f08c379a0000000000000000000000000000000000000000000000000000000008152600401612cba906149e1565b60405180910390fd5b612ccf600083836129fc565b6001600360008473ffffffffffffffffffffffffffffffffffffffff1673ffffffffffffffffffffffffffffffffffffffff1681526020019081526020016000206000828254612d1f91906140d6565b92505081905550816002600083815260200190815260200160002060006101000a81548173ffffffffffffffffffffffffffffffffffffffff021916908373ffffffffffffffffffffffffffffffffffffffff160217905550808273ffffffffffffffffffffffffffffffffffffffff16600073ffffffffffffffffffffffffffffffffffffffff167fddf252ad1be2c89b69c2b068fc378daa952ba7f163c4a11628f55a4df523b3ef60405160405180910390a4612de060008383612a01565b5050565b6040518060a0016040528060608152602001606081526020016000815260200160008152602001600081525090565b6040518060c001604052806000815260200160608152602001606081526020016000815260200160008152602001600081525090565b6000604051905090565b600080fd5b600080fd5b60007fffffffff0000000000000000000000000000000000000000000000000000000082169050919050565b612e9281612e5d565b8114612e9d57600080fd5b50565b600081359050612eaf81612e89565b92915050565b600060208284031215612ecb57612eca612e53565b5b6000612ed984828501612ea0565b91505092915050565b60008115159050919050565b612ef781612ee2565b82525050565b6000602082019050612f126000830184612eee565b92915050565b600081519050919050565b600082825260208201905092915050565b60005b83811015612f52578082015181840152602081019050612f37565b60008484015250505050565b6000601f19601f8301169050919050565b6000612f7a82612f18565b612f848185612f23565b9350612f94818560208601612f34565b612f9d81612f5e565b840191505092915050565b6000819050919050565b612fbb81612fa8565b82525050565b600060a0830160008301518482036000860152612fde8282612f6f565b91505060208301518482036020860152612ff88282612f6f565b915050604083015161300d6040860182612fb2565b5060608301516130206060860182612fb2565b5060808301516130336080860182612fb2565b508091505092915050565b600060208201905081810360008301526130588184612fc1565b905092915050565b600082825260208201905092915050565b600061307c82612f18565b6130868185613060565b9350613096818560208601612f34565b61309f81612f5e565b840191505092915050565b600060208201905081810360008301526130c48184613071565b905092915050565b6130d581612fa8565b81146130e057600080fd5b50565b6000813590506130f2816130cc565b92915050565b60006020828403121561310e5761310d612e53565b5b600061311c848285016130e3565b91505092915050565b600073ffffffffffffffffffffffffffffffffffffffff82169050919050565b600061315082613125565b9050919050565b61316081613145565b82525050565b600060208201905061317b6000830184613157565b92915050565b61318a81613145565b811461319557600080fd5b50565b6000813590506131a781613181565b92915050565b600080604083850312156131c4576131c3612e53565b5b60006131d285828601613198565b92505060206131e3858286016130e3565b9150509250929050565b60008060006060848603121561320657613205612e53565b5b600061321486828701613198565b935050602061322586828701613198565b9250506040613236868287016130e3565b9150509250925092565b60006020828403121561325657613255612e53565b5b600061326484828501613198565b91505092915050565b61327681612fa8565b82525050565b6000602082019050613291600083018461326d565b92915050565b600060c0820190506132ac600083018961326d565b81810360208301526132be8188613071565b905081810360408301526132d28187613071565b90506132e1606083018661326d565b6132ee608083018561326d565b6132fb60a083018461326d565b979650505050505050565b61330f81612ee2565b811461331a57600080fd5b50565b60008135905061332c81613306565b92915050565b6000806040838503121561334957613348612e53565b5b600061335785828601613198565b92505060206133688582860161331d565b9150509250929050565b600060a082019050818103600083015261338c8188613071565b905081810360208301526133a08187613071565b90506133af604083018661326d565b6133bc606083018561326d565b6133c9608083018461326d565b9695505050505050565b600080fd5b600080fd5b7f4e487b7100000000000000000000000000000000000000000000000000000000600052604160045260246000fd5b61341582612f5e565b810181811067ffffffffffffffff82111715613434576134336133dd565b5b80604052505050565b6000613447612e49565b9050613453828261340c565b919050565b600067ffffffffffffffff821115613473576134726133dd565b5b61347c82612f5e565b9050602081019050919050565b82818337600083830152505050565b60006134ab6134a684613458565b61343d565b9050828152602081018484840111156134c7576134c66133d8565b5b6134d2848285613489565b509392505050565b600082601f8301126134ef576134ee6133d3565b5b81356134ff848260208601613498565b91505092915050565b6000806000806080858703121561352257613521612e53565b5b600061353087828801613198565b945050602061354187828801613198565b9350506040613552878288016130e3565b925050606085013567ffffffffffffffff81111561357357613572612e58565b5b61357f878288016134da565b91505092959194509250565b600081519050919050565b600082825260208201905092915050565b6000819050602082019050919050565b600060c0830160008301516135cf6000860182612fb2565b50602083015184820360208601526135e78282612f6f565b915050604083015184820360408601526136018282612f6f565b91505060608301516136166060860182612fb2565b5060808301516136296080860182612fb2565b5060a083015161363c60a0860182612fb2565b508091505092915050565b600061365383836135b7565b905092915050565b6000602082019050919050565b60006136738261358b565b61367d8185613596565b93508360208202850161368f856135a7565b8060005b858110156136cb57848403895281516136ac8582613647565b94506136b78361365b565b925060208a01995050600181019050613693565b50829750879550505050505092915050565b600060208201905081810360008301526136f78184613668565b905092915050565b600060c0830160008301516137176000860182612fb2565b506020830151848203602086015261372f8282612f6f565b915050604083015184820360408601526137498282612f6f565b915050606083015161375e6060860182612fb2565b5060808301516137716080860182612fb2565b5060a083015161378460a0860182612fb2565b508091505092915050565b600060208201905081810360008301526137a981846136ff565b905092915050565b600080604083850312156137c8576137c7612e53565b5b60006137d685828601613198565b92505060206137e785828601613198565b9150509250929050565b7f4e487b7100000000000000000000000000000000000000000000000000000000600052602260045260246000fd5b6000600282049050600182168061383857607f821691505b60208210810361384b5761384a6137f1565b5b50919050565b7f4552433732313a20617070726f76616c20746f2063757272656e74206f776e6560008201527f7200000000000000000000000000000000000000000000000000000000000000602082015250565b60006138ad602183613060565b91506138b882613851565b604082019050919050565b600060208201905081810360008301526138dc816138a0565b9050919050565b7f4552433732313a20617070726f76652063616c6c6572206973206e6f7420746f60008201527f6b656e206f776e6572206e6f7220617070726f76656420666f7220616c6c0000602082015250565b600061393f603e83613060565b915061394a826138e3565b604082019050919050565b6000602082019050818103600083015261396e81613932565b9050919050565b7f4552433732313a2063616c6c6572206973206e6f7420746f6b656e206f776e6560008201527f72206e6f7220617070726f766564000000000000000000000000000000000000602082015250565b60006139d1602e83613060565b91506139dc82613975565b604082019050919050565b60006020820190508181036000830152613a00816139c4565b9050919050565b7f4552433732313a20696e76616c696420746f6b656e2049440000000000000000600082015250565b6000613a3d601883613060565b9150613a4882613a07565b602082019050919050565b60006020820190508181036000830152613a6c81613a30565b9050919050565b7f4552433732313a2061646472657373207a65726f206973206e6f74206120766160008201527f6c6964206f776e65720000000000000000000000000000000000000000000000602082015250565b6000613acf602983613060565b9150613ada82613a73565b604082019050919050565b60006020820190508181036000830152613afe81613ac2565b9050919050565b600081905092915050565b7f7b226e616d65223a202200000000000000000000000000000000000000000000600082015250565b6000613b46600a83613b05565b9150613b5182613b10565b600a82019050919050565b6000613b6782612f18565b613b718185613b05565b9350613b81818560208601612f34565b80840191505092915050565b7f202d2d204e465420233a20000000000000000000000000000000000000000000600082015250565b6000613bc3600b83613b05565b9150613bce82613b8d565b600b82019050919050565b7f222c20226465736372697074696f6e223a20225468697320697320616e204e4660008201527f542074686174206c6574732070656f706c6520706c617920696e20746865206760208201527f616d65204d657461766572736520536c6179657221222c2022696d616765223a60408201527f2022697066733a2f2f0000000000000000000000000000000000000000000000606082015250565b6000613c81606983613b05565b9150613c8c82613bd9565b606982019050919050565b7f222c202261747472696275746573223a205b207b202274726169745f7479706560008201527f223a20224865616c746820506f696e7473222c202276616c7565223a20000000602082015250565b6000613cf3603d83613b05565b9150613cfe82613c97565b603d82019050919050565b7f2c20226d61785f76616c7565223a000000000000000000000000000000000000600082015250565b6000613d3f600e83613b05565b9150613d4a82613d09565b600e82019050919050565b7f7d2c207b202274726169745f74797065223a202241747461636b2044616d616760008201527f65222c202276616c7565223a2000000000000000000000000000000000000000602082015250565b6000613db1602d83613b05565b9150613dbc82613d55565b602d82019050919050565b7f7d205d7d00000000000000000000000000000000000000000000000000000000600082015250565b6000613dfd600483613b05565b9150613e0882613dc7565b600482019050919050565b6000613e1e82613b39565b9150613e2a8289613b5c565b9150613e3582613bb6565b9150613e418288613b5c565b9150613e4c82613c74565b9150613e588287613b5c565b9150613e6382613ce6565b9150613e6f8286613b5c565b9150613e7a82613d32565b9150613e868285613b5c565b9150613e9182613da4565b9150613e9d8284613b5c565b9150613ea882613df0565b9150819050979650505050505050565b7f646174613a6170706c69636174696f6e2f6a736f6e3b6261736536342c000000600082015250565b6000613eee601d83613b05565b9150613ef982613eb8565b601d82019050919050565b6000613f0f82613ee1565b9150613f1b8284613b5c565b915081905092915050565b7f4572726f723a20636861726163746572206d757374206861766520485020746f60008201527f2061747461636b20626f73732e00000000000000000000000000000000000000602082015250565b6000613f82602d83613060565b9150613f8d82613f26565b604082019050919050565b60006020820190508181036000830152613fb181613f75565b9050919050565b7f4572726f723a20626f7373206d757374206861766520485020746f206174746160008201527f636b20636861726163746572732e000000000000000000000000000000000000602082015250565b6000614014602e83613060565b915061401f82613fb8565b604082019050919050565b6000602082019050818103600083015261404381614007565b9050919050565b7f4e487b7100000000000000000000000000000000000000000000000000000000600052601160045260246000fd5b600061408482612fa8565b915061408f83612fa8565b92508282039050818111156140a7576140a661404a565b5b92915050565b60006040820190506140c2600083018561326d565b6140cf602083018461326d565b9392505050565b60006140e182612fa8565b91506140ec83612fa8565b92508282019050808211156141045761410361404a565b5b92915050565b7f4e487b7100000000000000000000000000000000000000000000000000000000600052603260045260246000fd5b60008190508160005260206000209050919050565b60006020601f8301049050919050565b600082821b905092915050565b60006008830261419b7fffffffffffffffffffffffffffffffffffffffffffffffffffffffffffffffff8261415e565b6141a5868361415e565b95508019841693508086168417925050509392505050565b6000819050919050565b60006141e26141dd6141d884612fa8565b6141bd565b612fa8565b9050919050565b6000819050919050565b6141fc836141c7565b614210614208826141e9565b84845461416b565b825550505050565b600090565b614225614218565b6142308184846141f3565b505050565b5b818110156142545761424960008261421d565b600181019050614236565b5050565b601f8211156142995761426a81614139565b6142738461414e565b81016020851015614282578190505b61429661428e8561414e565b830182614235565b50505b505050565b600082821c905092915050565b60006142bc6000198460080261429e565b1980831691505092915050565b60006142d583836142ab565b9150826002028217905092915050565b6142ee82612f18565b67ffffffffffffffff811115614307576143066133dd565b5b6143118254613820565b61431c828285614258565b600060209050601f83116001811461434f576000841561433d578287015190505b61434785826142c9565b8655506143af565b601f19841661435d86614139565b60005b8281101561438557848901518255600182019150602085019450602081019050614360565b868310156143a2578489015161439e601f8916826142ab565b8355505b6001600288020188555050505b505050505050565b60006060820190506143cc6000830186613157565b6143d9602083018561326d565b6143e6604083018461326d565b949350505050565b600060808201905081810360008301526144088187613071565b9050818103602083015261441c8186613071565b905061442b604083018561326d565b818103606083015261443d8184613071565b905095945050505050565b7f4552433732313a207472616e736665722066726f6d20696e636f72726563742060008201527f6f776e6572000000000000000000000000000000000000000000000000000000602082015250565b60006144a4602583613060565b91506144af82614448565b604082019050919050565b600060208201905081810360008301526144d381614497565b9050919050565b7f4552433732313a207472616e7366657220746f20746865207a65726f2061646460008201527f7265737300000000000000000000000000000000000000000000000000000000602082015250565b6000614536602483613060565b9150614541826144da565b604082019050919050565b6000602082019050818103600083015261456581614529565b9050919050565b7f4552433732313a20617070726f766520746f2063616c6c657200000000000000600082015250565b60006145a2601983613060565b91506145ad8261456c565b602082019050919050565b600060208201905081810360008301526145d181614595565b9050919050565b7f4552433732313a207472616e7366657220746f206e6f6e20455243373231526560008201527f63656976657220696d706c656d656e7465720000000000000000000000000000602082015250565b6000614634603283613060565b915061463f826145d8565b604082019050919050565b6000602082019050818103600083015261466381614627565b9050919050565b600061467582612fa8565b91507fffffffffffffffffffffffffffffffffffffffffffffffffffffffffffffffff82036146a7576146a661404a565b5b600182019050919050565b7f4e487b7100000000000000000000000000000000000000000000000000000000600052601260045260246000fd5b60006146ec82612fa8565b91506146f783612fa8565b925082614707576147066146b2565b5b828204905092915050565b600061471d82612fa8565b915061472883612fa8565b925082614738576147376146b2565b5b828206905092915050565b600061474e82612fa8565b915061475983612fa8565b925082820261476781612fa8565b9150828204841483151761477e5761477d61404a565b5b5092915050565b6000608082019050818103600083015261479f8187613071565b905081810360208301526147b38186613071565b90506147c2604083018561326d565b6147cf606083018461326d565b95945050505050565b600060408201905081810360008301526147f28185613071565b9050614801602083018461326d565b9392505050565b600060608201905081810360008301526148228186613071565b9050614831602083018561326d565b61483e604083018461326d565b949350505050565b600081519050919050565b600082825260208201905092915050565b600061486d82614846565b6148778185614851565b9350614887818560208601612f34565b61489081612f5e565b840191505092915050565b60006080820190506148b06000830187613157565b6148bd6020830186613157565b6148ca604083018561326d565b81810360608301526148dc8184614862565b905095945050505050565b6000815190506148f681612e89565b92915050565b60006020828403121561491257614911612e53565b5b6000614920848285016148e7565b91505092915050565b7f4552433732313a206d696e7420746f20746865207a65726f2061646472657373600082015250565b600061495f602083613060565b915061496a82614929565b602082019050919050565b6000602082019050818103600083015261498e81614952565b9050919050565b7f4552433732313a20746f6b656e20616c7265616479206d696e74656400000000600082015250565b60006149cb601c83613060565b91506149d682614995565b602082019050919050565b600060208201905081810360008301526149fa816149be565b905091905056fe506c617965722061747461636b656420626f73732e204e657720626f73732068703a2025734142434445464748494a4b4c4d4e4f505152535455565758595a6162636465666768696a6b6c6d6e6f707172737475767778797a303132333435363738392b2f426f73732061747461636b656420706c617965722e204e657720706c617965722068703a2025730a4d696e746564204e465420772f20746f6b656e496420257320616e6420636861726163746572496e6465782025730a506c6179657220772f206368617261637465722025732061626f757420746f2061747461636b2e2048617320257320485020616e64202573204144a2646970667358221220e157e218198938904153a2efb15dbadf26a959205397171f876135e9fdd9080d64736f6c63430008110033446f6e6520696e697469616c697a696e6720257320772f2048502025732c20696d67202573446f6e6520696e697469616c697a696e6720626f737320257320772f2048502025732c20696d67202573",
  "linkReferences": {},
  "deployedLinkReferences": {}
}